mariia@ms-zen14:~$ sudo tcpdump -XX -i wlo1
tcpdump: verbose output suppressed, use -v[v]... for full protocol decode
listening on wlo1, link-type EN10MB (Ethernet), snapshot length 262144 bytes
13:08:58.233919 IP 10.0.97.76.netbios-dgm > 10.0.127.255.netbios-dgm: UDP, length 201
	0x0000:  ffff ffff ffff 24f6 7701 933a 0800 4500  ......$.w..:..E.
	0x0010:  00e5 e082 0000 8011 643a 0a00 614c 0a00  ........d:..aL..
	0x0020:  7fff 008a 008a 00d1 8946 110e e1c7 0a00  .........F......
	0x0030:  614c 008a 00bb 0000 2045 4445 4d45 4444  aL.......EDEMEDD
	0x0040:  4544 4244 4145 4a46 4544 4444 4643 4143  EDBDAEJFEDDDFCAC
	0x0050:  4143 4143 4143 4143 4100 2046 4845 5046  ACACACACA..FHEPF
	0x0060:  4345 4c45 4846 4345 5046 4646 4143 4143  CELEHFCEPFFFACAC
	0x0070:  4143 4143 4143 4143 4142 4e00 ff53 4d42  ACACACACABN..SMB
	0x0080:  2500 0000 0000 0000 0000 0000 0000 0000  %...............
	0x0090:  0000 0000 0000 0000 0000 0000 1100 0021  ...............!
	0x00a0:  0000 0000 0000 0000 00e8 0300 0000 0000  ................
	0x00b0:  0000 0021 0056 0003 0001 0000 0002 0032  ...!.V.........2
	0x00c0:  005c 4d41 494c 534c 4f54 5c42 524f 5753  .\MAILSLOT\BROWS
	0x00d0:  4500 0100 80fc 0a00 434c 4334 3130 4954  E.......CLC410IT
	0x00e0:  3335 0000 0000 0000 0a00 0310 0000 0f01  35..............
	0x00f0:  55aa 00                                  U..
13:08:58.276615 IP ms-zen14.60879 > gbcumb01.gbc.local.domain: 47810+ [1au] PTR? 76.97.0.10.in-addr.arpa. (52)
	0x0000:  64f6 9d71 9c40 0072 eee1 417d 0800 4500  d..q.@.r..A}..E.
	0x0010:  0050 cd5d 0000 4011 e716 0a00 6146 0a0a  .P.]..@.....aF..
	0x0020:  50d9 edcf 0035 003c c676 bac2 0100 0001  P....5.<.v......
	0x0030:  0000 0000 0001 0237 3602 3937 0130 0231  .......76.97.0.1
	0x0040:  3007 696e 2d61 6464 7204 6172 7061 0000  0.in-addr.arpa..
	0x0050:  0c00 0100 0029 05c0 0000 0000 0000       .....)........
13:08:58.290900 IP gbcumb01.gbc.local.domain > ms-zen14.60879: 47810 NXDomain 0/1/1 (111)
	0x0000:  0072 eee1 417d 64f6 9d71 9c40 0800 4500  .r..A}d..q.@..E.
	0x0010:  008b 182b 4000 3e11 5e0e 0a0a 50d9 0a00  ...+@.>.^...P...
	0x0020:  6146 0035 edcf 0077 09ec bac2 8183 0001  aF.5...w........
	0x0030:  0000 0001 0001 0237 3602 3937 0130 0231  .......76.97.0.1
	0x0040:  3007 696e 2d61 6464 7204 6172 7061 0000  0.in-addr.arpa..
	0x0050:  0c00 01c0 1400 0600 0100 0003 8400 2f09  ............../.
	0x0060:  6c6f 6361 6c68 6f73 7400 066e 6f62 6f64  localhost..nobod
	0x0070:  7907 696e 7661 6c69 6400 0000 0001 0000  y.invalid.......
	0x0080:  0258 0000 04b0 0009 3a80 0000 2a30 0000  .X......:...*0..
	0x0090:  2905 8200 0000 0000 00                   )........
13:08:58.345902 IP 10.0.96.100.netbios-ns > 10.0.127.255.netbios-ns: UDP, length 50
	0x0000:  ffff ffff ffff 1485 7ff1 a57c 0800 4500  ...........|..E.
	0x0010:  004e d1db 0000 8011 7460 0a00 6064 0a00  .N......t`..`d..
	0x0020:  7fff 0089 0089 003a ed09 a57d 0110 0001  .......:...}....
	0x0030:  0000 0000 0000 2045 4346 4346 4844 4444  .......ECFCFHDDD
	0x0040:  4945 4544 4644 4845 4244 4644 4a45 4545  IEEDFDHEBDFDJEEE
	0x0050:  4444 4645 4241 4100 0020 0001            DDFEBAA.....
13:08:58.356067 IP ms-zen14.35010 > 104.16.103.112.https: Flags [P.], seq 3810642990:3810643078, ack 503057229, win 381, options [nop,nop,TS val 3954970053 ecr 339362610], length 88
	0x0000:  64f6 9d71 9c40 0072 eee1 417d 0800 4500  d..q.@.r..A}..E.
	0x0010:  008c 20aa 4000 4006 defb 0a00 6146 6810  ....@.@.....aFh.
	0x0020:  6770 88c2 01bb e321 cc2e 1dfc 0b4d 8018  gp.....!.....M..
	0x0030:  017d 3b45 0000 0101 080a ebbc 0dc5 143a  .};E...........:
	0x0040:  4332 1703 0300 532b 1a58 f5bc 38d2 43eb  C2....S+.X..8.C.
	0x0050:  b583 c042 e6e4 a907 1b9d 99e4 c1f5 1338  ...B...........8
	0x0060:  72ca 2162 c286 00af cd03 2b78 926a a5fc  r.!b......+x.j..
	0x0070:  f3bc 9049 fa4f 00e9 096c 249b d176 188a  ...I.O...l$..v..
	0x0080:  ebe0 e637 70e9 5122 3c5b 1e8a 5cde f32c  ...7p.Q"<[..\..,
	0x0090:  7bce 4ada 7594 5d5b 6774                 {.J.u.][gt
13:08:58.359358 IP ms-zen14.35010 > 104.16.103.112.https: Flags [P.], seq 88:127, ack 1, win 381, options [nop,nop,TS val 3954970056 ecr 339362610], length 39
	0x0000:  64f6 9d71 9c40 0072 eee1 417d 0800 4500  d..q.@.r..A}..E.
	0x0010:  005b 20ab 4000 4006 df2b 0a00 6146 6810  .[..@.@..+..aFh.
	0x0020:  6770 88c2 01bb e321 cc86 1dfc 0b4d 8018  gp.....!.....M..
	0x0030:  017d 3b14 0000 0101 080a ebbc 0dc8 143a  .};............:
	0x0040:  4332 1703 0300 22d5 ba9f cce8 046f 17a7  C2...."......o..
	0x0050:  8ed3 87a9 ed06 48f8 2e58 bef8 fdbd 890d  ......H..X......
	0x0060:  ba8e 155b a29d c022 4b                   ...[..."K
13:08:58.362889 IP 104.16.103.112.https > ms-zen14.35010: Flags [.], ack 88, win 16, options [nop,nop,TS val 339377542 ecr 3954970053], length 0
	0x0000:  0072 eee1 417d 64f6 9d71 9c40 0800 4500  .r..A}d..q.@..E.
	0x0010:  0034 20df 4000 3806 e71e 6810 6770 0a00  .4..@.8...h.gp..
	0x0020:  6146 01bb 88c2 1dfc 0b4d e321 cc86 8010  aF.......M.!....
	0x0030:  0010 4d35 0000 0101 080a 143a 7d86 ebbc  ..M5.......:}...
	0x0040:  0dc5                                     ..
13:08:58.362891 IP 104.16.103.112.https > ms-zen14.35010: Flags [.], ack 127, win 16, options [nop,nop,TS val 339377542 ecr 3954970056], length 0
	0x0000:  0072 eee1 417d 64f6 9d71 9c40 0800 4500  .r..A}d..q.@..E.
	0x0010:  0034 20e0 4000 3806 e71d 6810 6770 0a00  .4..@.8...h.gp..
	0x0020:  6146 01bb 88c2 1dfc 0b4d e321 ccad 8010  aF.......M.!....
	0x0030:  0010 4d0b 0000 0101 080a 143a 7d86 ebbc  ..M........:}...
	0x0040:  0dc8                                     ..
13:08:58.362892 IP 104.16.103.112.https > ms-zen14.35010: Flags [P.], seq 1:40, ack 127, win 16, options [nop,nop,TS val 339377543 ecr 3954970056], length 39
	0x0000:  0072 eee1 417d 64f6 9d71 9c40 0800 4500  .r..A}d..q.@..E.
	0x0010:  005b 20e1 4000 3806 e6f5 6810 6770 0a00  .[..@.8...h.gp..
	0x0020:  6146 01bb 88c2 1dfc 0b4d e321 ccad 8018  aF.......M.!....
	0x0030:  0010 dba7 0000 0101 080a 143a 7d87 ebbc  ...........:}...
	0x0040:  0dc8 1703 0300 2293 33be 59d3 da9d aa4b  ......".3.Y....K
	0x0050:  fa54 1cbd 9ebc 6463 1ce8 2cb7 b25f a696  .T....dc..,.._..
	0x0060:  83bf e447 f03f 7412 99                   ...G.?t..
13:08:58.373978 IP 104.16.103.112.https > ms-zen14.35010: Flags [P.], seq 40:338, ack 127, win 16, options [nop,nop,TS val 339377550 ecr 3954970056], length 298
	0x0000:  0072 eee1 417d 64f6 9d71 9c40 0800 4500  .r..A}d..q.@..E.
	0x0010:  015e 20e2 4000 3806 e5f1 6810 6770 0a00  .^..@.8...h.gp..
	0x0020:  6146 01bb 88c2 1dfc 0b74 e321 ccad 8018  aF.......t.!....
	0x0030:  0010 3a2a 0000 0101 080a 143a 7d8e ebbc  ..:*.......:}...
	0x0040:  0dc8 1703 0301 2582 c6b1 f381 aa72 5897  ......%......rX.
	0x0050:  286e fe50 7dd0 4f20 c094 ea47 27c4 3fbc  (n.P}.O....G'.?.
	0x0060:  eda5 fda1 ccb1 f4ee 39ae a152 270d f511  ........9..R'...
	0x0070:  522d 1318 0263 8385 9912 a438 c71f 1133  R-...c.....8...3
	0x0080:  9075 7153 3ff8 5925 34b0 f69d 3118 ecab  .uqS?.Y%4...1...
	0x0090:  7450 c84e 63a5 0b76 08c7 2257 38d3 74d1  tP.Nc..v.."W8.t.
	0x00a0:  3f9b 2140 45e2 5947 7530 69ed 80a7 de29  ?.!@E.YGu0i....)
	0x00b0:  0f63 af56 48bf 4f58 87ac b619 e1dc b18e  .c.VH.OX........
	0x00c0:  18ff 2d65 26d1 cd69 b668 0bca 9437 cdeb  ..-e&..i.h...7..
	0x00d0:  6683 0587 2861 647f f254 159d 775f d9a0  f...(ad..T..w_..
	0x00e0:  5048 9e60 82c3 962c 1a12 c95c 5039 4ecf  PH.`...,...\P9N.
	0x00f0:  121f 670d 4145 4240 feb4 9a81 9a95 b157  ..g.AEB@.......W
	0x0100:  fbba df5e 3ee3 90aa fc60 bde9 345c d98d  ...^>....`..4\..
	0x0110:  feb7 1bcb 3b5e 3930 ccea 4151 c6ef 3813  ....;^90..AQ..8.
	0x0120:  1a48 3804 2e75 5d11 b321 194f 9eb8 f02e  .H8..u]..!.O....
	0x0130:  cc52 da1f b66a 5bb6 8f0a 37bd 280a 5b0c  .R...j[...7.(.[.
	0x0140:  e312 0ec7 283d 5261 0ac7 5527 b9f5 11b1  ....(=Ra..U'....
	0x0150:  d81f 0866 9cea 0040 45bc 1b4d c4f7 8f5f  ...f...@E..M..._
	0x0160:  3447 9f84 065b cad0 f863 cb6e            4G...[...c.n
13:08:58.373980 IP 104.16.103.112.https > ms-zen14.35010: Flags [P.], seq 338:371, ack 127, win 16, options [nop,nop,TS val 339377550 ecr 3954970056], length 33
	0x0000:  0072 eee1 417d 64f6 9d71 9c40 0800 4500  .r..A}d..q.@..E.
	0x0010:  0055 20e3 4000 3806 e6f9 6810 6770 0a00  .U..@.8...h.gp..
	0x0020:  6146 01bb 88c2 1dfc 0c9e e321 ccad 8018  aF.........!....
	0x0030:  0010 6dd6 0000 0101 080a 143a 7d8e ebbc  ..m........:}...
	0x0040:  0dc8 1703 0300 1c0b 7c3d 496b 4cb4 f8e5  ........|=IkL...
	0x0050:  e715 9f26 2b2f bd42 00a6 1119 160b 049b  ...&+/.B........
	0x0060:  bb4d 46                                  .MF
13:08:58.373980 IP 104.16.103.112.https > ms-zen14.35010: Flags [P.], seq 371:402, ack 127, win 16, options [nop,nop,TS val 339377550 ecr 3954970056], length 31
	0x0000:  0072 eee1 417d 64f6 9d71 9c40 0800 4500  .r..A}d..q.@..E.
	0x0010:  0053 20e4 4000 3806 e6fa 6810 6770 0a00  .S..@.8...h.gp..
	0x0020:  6146 01bb 88c2 1dfc 0cbf e321 ccad 8018  aF.........!....
	0x0030:  0010 e103 0000 0101 080a 143a 7d8e ebbc  ...........:}...
	0x0040:  0dc8 1703 0300 1a14 c0d2 ac03 7830 42b8  ............x0B.
	0x0050:  a713 b365 5f03 19d3 17d3 b57b cea1 bb4e  ...e_......{...N
	0x0060:  e4                                       .
13:08:58.374121 IP ms-zen14.35010 > 104.16.103.112.https: Flags [.], ack 402, win 378, options [nop,nop,TS val 3954970071 ecr 339377543], length 0
	0x0000:  64f6 9d71 9c40 0072 eee1 417d 0800 4500  d..q.@.r..A}..E.
	0x0010:  0034 20ac 4000 4006 df51 0a00 6146 6810  .4..@.@..Q..aFh.
	0x0020:  6770 88c2 01bb e321 ccad 1dfc 0cde 8010  gp.....!........
	0x0030:  017a 3aed 0000 0101 080a ebbc 0dd7 143a  .z:............:
	0x0040:  7d87                                     }.
13:08:58.376343 IP ms-zen14.35010 > 104.16.103.112.https: Flags [P.], seq 127:162, ack 402, win 378, options [nop,nop,TS val 3954970073 ecr 339377543], length 35
	0x0000:  64f6 9d71 9c40 0072 eee1 417d 0800 4500  d..q.@.r..A}..E.
	0x0010:  0057 20ad 4000 4006 df2d 0a00 6146 6810  .W..@.@..-..aFh.
	0x0020:  6770 88c2 01bb e321 ccad 1dfc 0cde 8018  gp.....!........
	0x0030:  017a 3b10 0000 0101 080a ebbc 0dd9 143a  .z;............:
	0x0040:  7d87 1703 0300 1e21 da3f 990f e4d7 d3d0  }......!.?......
	0x0050:  2993 f3ec 4be3 ab7b 3b44 fb37 ec01 c321  )...K..{;D.7...!
	0x0060:  acea 2247 c8                             .."G.
13:08:58.377682 IP ms-zen14.42811 > gbcumb01.gbc.local.domain: 54353+ [1au] PTR? 217.80.10.10.in-addr.arpa. (54)
	0x0000:  64f6 9d71 9c40 0072 eee1 417d 0800 4500  d..q.@.r..A}..E.
	0x0010:  0052 5520 0000 4011 5f52 0a00 6146 0a0a  .RU...@._R..aF..
	0x0020:  50d9 a73b 0035 003e c678 d451 0100 0001  P..;.5.>.x.Q....
	0x0030:  0000 0000 0001 0332 3137 0238 3002 3130  .......217.80.10
	0x0040:  0231 3007 696e 2d61 6464 7204 6172 7061  .10.in-addr.arpa
	0x0050:  0000 0c00 0100 0029 05c0 0000 0000 0000  .......)........
13:08:58.386768 IP gbcumb01.gbc.local.domain > ms-zen14.42811: 54353 1/0/1 PTR gbcumb01.gbc.local. (86)
	0x0000:  0072 eee1 417d 64f6 9d71 9c40 0800 4500  .r..A}d..q.@..E.
	0x0010:  0072 1832 4000 3e11 5e20 0a0a 50d9 0a00  .r.2@.>.^...P...
	0x0020:  6146 0035 a73b 005e 3db8 d451 8180 0001  aF.5.;.^=..Q....
	0x0030:  0001 0000 0001 0332 3137 0238 3002 3130  .......217.80.10
	0x0040:  0231 3007 696e 2d61 6464 7204 6172 7061  .10.in-addr.arpa
	0x0050:  0000 0c00 01c0 0c00 0c00 0100 000e 1000  ................
	0x0060:  1408 6762 6375 6d62 3031 0367 6263 056c  ..gbcumb01.gbc.l
	0x0070:  6f63 616c 0000 0029 0582 0000 0000 0000  ocal...)........
13:08:58.387695 IP ms-zen14.35311 > gbcumb01.gbc.local.domain: 24569+ [1au] PTR? 70.97.0.10.in-addr.arpa. (52)
	0x0000:  64f6 9d71 9c40 0072 eee1 417d 0800 4500  d..q.@.r..A}..E.
	0x0010:  0050 a681 0000 4011 0df3 0a00 6146 0a0a  .P....@.....aF..
	0x0020:  50d9 89ef 0035 003c c676 5ff9 0100 0001  P....5.<.v_.....
	0x0030:  0000 0000 0001 0237 3002 3937 0130 0231  .......70.97.0.1
	0x0040:  3007 696e 2d61 6464 7204 6172 7061 0000  0.in-addr.arpa..
	0x0050:  0c00 0100 0029 05c0 0000 0000 0000       .....)........
13:08:58.391366 IP gbcumb01.gbc.local.domain > ms-zen14.35311: 24569 NXDomain 0/1/1 (111)
	0x0000:  0072 eee1 417d 64f6 9d71 9c40 0800 4500  .r..A}d..q.@..E.
	0x0010:  008b 1834 4000 3e11 5e05 0a0a 50d9 0a00  ...4@.>.^...P...
	0x0020:  6146 0035 89ef 0077 fc96 5ff9 8183 0001  aF.5...w.._.....
	0x0030:  0000 0001 0001 0237 3002 3937 0130 0231  .......70.97.0.1
	0x0040:  3007 696e 2d61 6464 7204 6172 7061 0000  0.in-addr.arpa..
	0x0050:  0c00 01c0 1400 0600 0100 0002 5600 2f09  ............V./.
	0x0060:  6c6f 6361 6c68 6f73 7400 066e 6f62 6f64  localhost..nobod
	0x0070:  7907 696e 7661 6c69 6400 0000 0001 0000  y.invalid.......
	0x0080:  0258 0000 04b0 0009 3a80 0000 2a30 0000  .X......:...*0..
	0x0090:  2905 8200 0000 0000 00                   )........
13:08:58.392585 IP ms-zen14.50381 > gbcumb01.gbc.local.domain: 35296+ [1au] PTR? 100.96.0.10.in-addr.arpa. (53)
	0x0000:  64f6 9d71 9c40 0072 eee1 417d 0800 4500  d..q.@.r..A}..E.
	0x0010:  0051 f209 0000 4011 c269 0a00 6146 0a0a  .Q....@..i..aF..
	0x0020:  50d9 c4cd 0035 003d c677 89e0 0100 0001  P....5.=.w......
	0x0030:  0000 0000 0001 0331 3030 0239 3601 3002  .......100.96.0.
	0x0040:  3130 0769 6e2d 6164 6472 0461 7270 6100  10.in-addr.arpa.
	0x0050:  000c 0001 0000 2905 c000 0000 0000 00    ......)........
13:08:58.397895 IP gbcumb01.gbc.local.domain > ms-zen14.50381: 35296 NXDomain 0/1/1 (112)
	0x0000:  0072 eee1 417d 64f6 9d71 9c40 0800 4500  .r..A}d..q.@..E.
	0x0010:  008c 1836 4000 3e11 5e02 0a0a 50d9 0a00  ...6@.>.^...P...
	0x0020:  6146 0035 c4cd 0078 d0a1 89e0 8183 0001  aF.5...x........
	0x0030:  0000 0001 0001 0331 3030 0239 3601 3002  .......100.96.0.
	0x0040:  3130 0769 6e2d 6164 6472 0461 7270 6100  10.in-addr.arpa.
	0x0050:  000c 0001 c015 0006 0001 0000 031f 002f  .............../
	0x0060:  096c 6f63 616c 686f 7374 0006 6e6f 626f  .localhost..nobo
	0x0070:  6479 0769 6e76 616c 6964 0000 0000 0100  dy.invalid......
	0x0080:  0002 5800 0004 b000 093a 8000 002a 3000  ..X......:...*0.
	0x0090:  0029 0582 0000 0000 0000                 .)........
13:08:58.399065 IP ms-zen14.36836 > gbcumb01.gbc.local.domain: 16295+ [1au] PTR? 112.103.16.104.in-addr.arpa. (56)
	0x0000:  64f6 9d71 9c40 0072 eee1 417d 0800 4500  d..q.@.r..A}..E.
	0x0010:  0054 d798 0000 4011 dcd7 0a00 6146 0a0a  .T....@.....aF..
	0x0020:  50d9 8fe4 0035 0040 c67a 3fa7 0100 0001  P....5.@.z?.....
	0x0030:  0000 0000 0001 0331 3132 0331 3033 0231  .......112.103.1
	0x0040:  3603 3130 3407 696e 2d61 6464 7204 6172  6.104.in-addr.ar
	0x0050:  7061 0000 0c00 0100 0029 05c0 0000 0000  pa.......)......
	0x0060:  0000                                     ..
13:08:58.407616 IP gbcumb01.gbc.local.domain > ms-zen14.36836: 16295 NXDomain 0/1/1 (118)
	0x0000:  0072 eee1 417d 64f6 9d71 9c40 0800 4500  .r..A}d..q.@..E.
	0x0010:  0092 1837 4000 3e11 5dfb 0a0a 50d9 0a00  ...7@.>.]...P...
	0x0020:  6146 0035 8fe4 007e 1eb2 3fa7 8183 0001  aF.5...~..?.....
	0x0030:  0000 0001 0001 0331 3132 0331 3033 0231  .......112.103.1
	0x0040:  3603 3130 3407 696e 2d61 6464 7204 6172  6.104.in-addr.ar
	0x0050:  7061 0000 0c00 01c0 1400 0600 0100 0001  pa..............
	0x0060:  6400 3204 6372 757a 026e 730a 636c 6f75  d.2.cruz.ns.clou
	0x0070:  6466 6c61 7265 0363 6f6d 0003 646e 73c0  dflare.com..dns.
	0x0080:  4188 69a7 5c00 0027 1000 0009 6000 093a  A.i.\..'....`..:
	0x0090:  8000 000e 1000 0029 0582 0000 0000 0000  .......)........
13:08:58.421873 IP 104.16.103.112.https > ms-zen14.35010: Flags [.], ack 162, win 16, options [nop,nop,TS val 339377602 ecr 3954970073], length 0
	0x0000:  0072 eee1 417d 64f6 9d71 9c40 0800 4500  .r..A}d..q.@..E.
	0x0010:  0034 20e5 4000 3806 e718 6810 6770 0a00  .4..@.8...h.gp..
	0x0020:  6146 01bb 88c2 1dfc 0cde e321 ccd0 8010  aF.........!....
	0x0030:  0010 4b0a 0000 0101 080a 143a 7dc2 ebbc  ..K........:}...
	0x0040:  0dd9                                     ..
13:08:58.643159 de:52:22:a6:c7:6f (oui Unknown) > Broadcast Null Supervisory, Receiver not Ready, rcv seq 64, Flags [Poll], length 8
	0x0000:  ffff ffff ffff de52 22a6 c76f 0008 0000  .......R"..o....
	0x0010:  f581 8000 0000 0000 0000 0000            ............
13:08:58.847954 IP 10.0.96.255.57621 > 10.0.127.255.57621: UDP, length 44
	0x0000:  ffff ffff ffff 564d 4910 7772 0800 4500  ......VMI.wr..E.
	0x0010:  0048 f7d4 0000 4011 8dd2 0a00 60ff 0a00  .H....@.....`...
	0x0020:  7fff e115 e115 0034 0f88 5370 6f74 5564  .......4..SpotUd
	0x0030:  7030 58e5 072d d765 7c23 0001 0004 4895  p0X..-.e|#....H.
	0x0040:  c203 2107 e91a 6954 7589 4041 f242 252e  ..!...iTu.@A.B%.
	0x0050:  9e90 47d5 cb08                           ..G...
13:08:58.898119 IP ms-zen14.45869 > gbcumb01.gbc.local.domain: 26169+ [1au] PTR? 255.96.0.10.in-addr.arpa. (53)
	0x0000:  64f6 9d71 9c40 0072 eee1 417d 0800 4500  d..q.@.r..A}..E.
	0x0010:  0051 f196 0000 4011 c2dc 0a00 6146 0a0a  .Q....@.....aF..
	0x0020:  50d9 b32d 0035 003d c677 6639 0100 0001  P..-.5.=.wf9....
	0x0030:  0000 0000 0001 0332 3535 0239 3601 3002  .......255.96.0.
	0x0040:  3130 0769 6e2d 6164 6472 0461 7270 6100  10.in-addr.arpa.
	0x0050:  000c 0001 0000 2905 c000 0000 0000 00    ......)........
13:08:58.911679 IP gbcumb01.gbc.local.domain > ms-zen14.45869: 26169 NXDomain 0/1/1 (112)
	0x0000:  0072 eee1 417d 64f6 9d71 9c40 0800 4500  .r..A}d..q.@..E.
	0x0010:  008c 1842 4000 3e11 5df6 0a0a 50d9 0a00  ...B@.>.]...P...
	0x0020:  6146 0035 b32d 0078 00a0 6639 8183 0001  aF.5.-.x..f9....
	0x0030:  0000 0001 0001 0332 3535 0239 3601 3002  .......255.96.0.
	0x0040:  3130 0769 6e2d 6164 6472 0461 7270 6100  10.in-addr.arpa.
	0x0050:  000c 0001 c015 0006 0001 0000 0362 002f  .............b./
	0x0060:  096c 6f63 616c 686f 7374 0006 6e6f 626f  .localhost..nobo
	0x0070:  6479 0769 6e76 616c 6964 0000 0000 0100  dy.invalid......
	0x0080:  0002 5800 0004 b000 093a 8000 002a 3000  ..X......:...*0.
	0x0090:  0029 0582 0000 0000 0000                 .)........
13:08:59.057290 IP 10.0.96.100.netbios-ns > 10.0.127.255.netbios-ns: UDP, length 50
	0x0000:  ffff ffff ffff 1485 7ff1 a57c 0800 4500  ...........|..E.
	0x0010:  004e d1dc 0000 8011 745f 0a00 6064 0a00  .N......t_..`d..
	0x0020:  7fff 0089 0089 003a ed09 a57d 0110 0001  .......:...}....
	0x0030:  0000 0000 0000 2045 4346 4346 4844 4444  .......ECFCFHDDD
	0x0040:  4945 4544 4644 4845 4244 4644 4a45 4545  IEEDFDHEBDFDJEEE
	0x0050:  4444 4645 4241 4100 0020 0001            DDFEBAA.....
13:08:59.057290 IP 52.96.230.210.https > ms-zen14.46144: UDP, length 42
	0x0000:  0072 eee1 417d 64f6 9d71 9c40 0800 4500  .r..A}d..q.@..E.
	0x0010:  0046 0b24 4000 7411 750a 3460 e6d2 0a00  .F.$@.t.u.4`....
	0x0020:  6146 01bb b440 0032 7d94 53c5 971a 801d  aF...@.2}.S.....
	0x0030:  76db 6d9f a748 8161 e5a0 f01f 2f59 f2a0  v.m..H.a..../Y..
	0x0040:  1f7f 01d9 71fd 2215 6de0 548b 41bc edf9  ....q.".m.T.A...
	0x0050:  2683 0794                                &...
13:08:59.059391 IP ms-zen14.46144 > 52.96.230.210.https: UDP, length 39
	0x0000:  64f6 9d71 9c40 0072 eee1 417d 0800 4500  d..q.@.r..A}..E.
	0x0010:  0043 17b6 4000 4011 9c7b 0a00 6146 3460  .C..@.@..{..aF4`
	0x0020:  e6d2 b440 01bb 002f 86b9 5778 3460 e6d2  ...@.../..Wx4`..
	0x0030:  606e a37c 7db1 feea 4c85 8f22 fb04 32cc  `n.|}...L.."..2.
	0x0040:  5f6f ace1 1ea2 faa3 195a c914 53b4 da95  _o.......Z..S...
	0x0050:  da                                       .
13:08:59.105953 IP ms-zen14.38134 > gbcumb01.gbc.local.domain: 58843+ [1au] PTR? 210.230.96.52.in-addr.arpa. (55)
	0x0000:  64f6 9d71 9c40 0072 eee1 417d 0800 4500  d..q.@.r..A}..E.
	0x0010:  0053 04de 0000 4011 af93 0a00 6146 0a0a  .S....@.....aF..
	0x0020:  50d9 94f6 0035 003f c679 e5db 0100 0001  P....5.?.y......
	0x0030:  0000 0000 0001 0332 3130 0332 3330 0239  .......210.230.9
	0x0040:  3602 3532 0769 6e2d 6164 6472 0461 7270  6.52.in-addr.arp
	0x0050:  6100 000c 0001 0000 2905 c000 0000 0000  a.......).......
	0x0060:  00                                       .
13:08:59.125092 IP gbcumb01.gbc.local.domain > ms-zen14.38134: 58843 NXDomain 0/1/1 (141)
	0x0000:  0072 eee1 417d 64f6 9d71 9c40 0800 4500  .r..A}d..q.@..E.
	0x0010:  00a9 1865 4000 3e11 5db6 0a0a 50d9 0a00  ...e@.>.]...P...
	0x0020:  6146 0035 94f6 0095 b48e e5db 8183 0001  aF.5............
	0x0030:  0000 0001 0001 0332 3130 0332 3330 0239  .......210.230.9
	0x0040:  3602 3532 0769 6e2d 6164 6472 0461 7270  6.52.in-addr.arp
	0x0050:  6100 000c 0001 c014 0006 0001 0000 00c1  a...............
	0x0060:  004a 066e 7331 2d30 3109 617a 7572 652d  .J.ns1-01.azure-
	0x0070:  646e 7303 636f 6d00 1361 7a75 7265 646e  dns.com..azuredn
	0x0080:  732d 686f 7374 6d61 7374 6572 096d 6963  s-hostmaster.mic
	0x0090:  726f 736f 6674 c049 0000 0001 0000 0e10  rosoft.I........
	0x00a0:  0000 012c 0024 ea00 0000 012c 0000 2905  ...,.$.....,..).
	0x00b0:  8200 0000 0000 00                        .......
^C
32 packets captured
32 packets received by filter
0 packets dropped by kernel

